:100000000C9462000C94D1070C94AA070C948A00FB
:100010000C948A000C948A000C948A000C94F807C3
:100020000C948A000C948A000C948A000C948A0028
:100030000C948A000C948A000C948A000C948A0018
:100040000C9460070C948A000C942E070C940807FB
:100050000C948A000C948A000C948A000C948A00F8
:100060000C948A000C948A00000000080002010031
:100070000003040700000000000000000000000072
:10008000240027002A000000000023002600290089
:1000900000000000250028002B00040404040404D0
:1000A0000404020202020202030303030303010227
:1000B00004081020408001020408102001020408F6
:1000C0001020020811241FBECFEFD8E0DEBFCDBF45
:1000D00011E0A0E0B1E0ECE1F0E202C005900D9289
:1000E000AA34B107D9F722E0AAE4B1E001C01D9219
:1000F000AB38B207E1F710E0C2E6D0E004C02197C8
:10010000FE010E940610C136D107C9F70E947B0884
:100110000C940C100C940000DC0170E0FB01E25523
:10012000FF4FE4911496EC93149750E0FA01E255D6
:10013000FF4FE4911596EC93159766567F4FFB01A0
:100140008491E82FF0E0EE0FFF1FE057FF4F8591FD
:10015000949117969C938E931697FA01E656FF4F4B
:10016000E491F0E0EE0FFF1FEA57FF4F8591949165
:100170001B969C938E931A97FB016491E62FF0E0F7
:10018000EE0FFF1FE458FF4F8591949119969C93B1
:100190008E93189784EA9CE21D969C938E931C97ED
:1001A0000895AF92BF92CF92DF92EF92FF920F939A
:1001B0001F93CF93DF936C017B018B01040F151FFD
:1001C000EB015E01AE18BF08C017D10759F0699165
:1001D000D601ED91FC910190F081E02DC6010995C9
:1001E000892B79F7C501DF91CF911F910F91FF9076
:1001F000EF90DF90CF90BF90AF900895FC01538DAA
:10020000448D252F30E0842F90E0821B930B5417F0
:1002100010F0CF96089501970895FC01918D828D7D
:10022000981761F0A28DAE0FBF2FB11D5D968C9116
:10023000928D9F5F9F73928F90E008958FEF9FEF55
:100240000895FC01918D828D981731F0828DE80F11
:10025000F11D858D90E008958FEF9FEF0895FC01CB
:10026000918D228D892F90E0805C9F4F821B910998
:100270008F739927089588E891E00E942F0121E06B
:10028000892B09F420E0822F089580E090E0892BEB
:1002900029F00E943B0181110C9400000895FC019B
:1002A000A48DA80FB92FB11DA35ABF4F2C91848DD7
:1002B00090E001968F739927848FA689B7892C9334
:1002C000A089B1898C91837080648C93938D848D87
:1002D000981306C00288F389E02D80818F7D80838A
:1002E0000895EF92FF920F931F93CF93DF93EC014A
:1002F00081E0888F9B8D8C8D98131AC0E889F989CD
:10030000808185FF15C09FB7F894EE89FF896083CF
:10031000E889F98980818370806480839FBF81E050
:1003200090E0DF91CF911F910F91FF90EF90089592
:10033000F62E0B8D10E00F5F1F4F0F731127E02E6D
:100340008C8D8E110CC00FB607FCFACFE889F989A5
:10035000808185FFF5CFCE010E944F01F1CFEB8D5B
:10036000EC0FFD2FF11DE35AFF4FF0829FB7F89479
:100370000B8FEA89FB8980818062CFCFCF93DF9397
:10038000EC01888D8823B9F0AA89BB89E889F989AD
:100390008C9185FD03C0808186FD0DC00FB607FCE2
:1003A000F7CF8C9185FFF2CF808185FFEDCFCE0115
:1003B0000E944F01E9CFDF91CF910895833081F002
:1003C00028F4813099F08230A9F008958730A9F09F
:1003D0008830C9F08430B1F4809180008F7D03C0F3
:1003E000809180008F7780938000089584B58F7707
:1003F00084BD089584B58F7DFBCF8091B0008F7749
:100400008093B00008958091B0008F7DF9CFCF9395
:10041000DF93282F30E0F901E859FF4F8491F9016B
:10042000E255FF4FD491F901E656FF4FC491CC231A
:10043000A1F081110E94DE01EC2FF0E0EE0FFF1F12
:10044000EA57FF4FA591B491EC91ED2381E090E044
:1004500009F480E0DF91CF91089580E090E0FACF39
:1004600084E00E9407021816190654F480917C015A
:1004700090917D01019690937D0180937C01089578
:1004800080917C0190917D010197F5CF85E00E94DC
:1004900007021816190654F480917E0190917F018D
:1004A000019690937F0180937E01089580917E0153
:1004B00090917F010197F5CF1F93CF93DF93282F62
:1004C00030E0F901E859FF4F8491F901E255FF4FFF
:1004D000D491F901E656FF4FC491CC23A9F0162F11
:1004E00081110E94DE01EC2FF0E0EE0FFF1FE057BC
:1004F000FF4FA591B4918FB7F894EC91111108C0FA
:10050000D095DE23DC938FBFDF91CF911F910895AB
:10051000DE2BF8CFCF93DF9390E0FC01E255FF4F45
:10052000249186569F4FFC0184918823D1F090E05E
:10053000880F991FFC01E458FF4FA591B491FC016D
:10054000E057FF4FC591D49161110EC09FB7F89449
:100550008C91E22FE0958E238C932881E223E8830F
:100560009FBFDF91CF9108958FB7F894EC91E22B64
:10057000EC938FBFF6CF1F93CF93DF93182FEB0130
:1005800061E00E948A02209739F460E0812FDF91B8
:10059000CF911F910C945C02CF3FD10511F461E023
:1005A000F5CFE12FF0E0E859FF4FE491E33031F16E
:1005B00040F4E130B1F0E230E1F0C038D1057CF731
:1005C000E4CFE73029F1E83059F1E430B1F7809118
:1005D0008000806280938000D0938B00C0938A005B
:1005E00004C084B5806884BDC7BDDF91CF911F91E1
:1005F000089584B5806284BDC8BDF7CF8091800026
:10060000806880938000D0938900C0938800EDCFEC
:100610008091B00080688093B000C093B300E5CFB4
:100620008091B00080628093B000C093B400DDCFB1
:100630003FB7F8948091670190916801A09169019A
:10064000B0916A0126B5A89B05C02F3F19F001960D
:10065000A11DB11D3FBFBA2FA92F982F8827BC011C
:10066000CD01620F711D811D911D42E0660F771F44
:10067000881F991F4A95D1F7089508950F931F93E6
:10068000CF93DF93EC01E885F98580819C81892BEC
:100690008083EE81FF8190818C8180958923808386
:1006A0008BE090E00197F1F7EE81FF8180819C81E2
:1006B000892B808383E290E00197F1F7EE81FF813F
:1006C00090818C81809589238083E885F98590814C
:1006D0008C818095892380830E941803605B794B0D
:1006E0008F4F9F4F6E877F87888B998BEA85FB851D
:1006F00080819D81892359F00E9418030E851F85F2
:1007000028893989061717072807390778F7EA85EE
:10071000FB8580819D818923F9F40E9418030E8551
:100720001F8528893989061717072807390778F799
:1007300050E040E030E020E0CA014C9669E370E010
:100740000E94F20FCB016217730708F4C901DF9111
:10075000CF911F910F9108950E9418032C853D851C
:10076000620F731F811D911D6E877F87888B998B08
:10077000EA85FB8580819D81892361F00E941803B1
:100780000E851F8528893989061717072807390715
:1007900078F7CECF0E9418032C853D85A9014550DE
:1007A00051092E853F85FA01E21BF30BAF01460F7D
:1007B000571F91E080E04115510509F490E0292F81
:1007C000382FBACF20E030E040E551E4609171016C
:1007D0007091720180917301909174010E94210EB9
:1007E00087FF2AC081E080937B0120E030E040E574
:1007F00051E460917501709176018091770190913B
:1008000078010E94210E87FF1AC081E080937A014F
:1008100020E030E040EE50E46091620170916301AD
:1008200080916401909165010E94210E87FF0AC0AA
:1008300081E080937901089510927B01D6CF1092C8
:100840007A01E6CF1092790108954F925F926F92EC
:100850007F928F929F92AF92BF92CF92DF92EF9250
:10086000FF92CF93DF9389E792E00E943E03BC01A1
:1008700090E080E00E94CE0E6B017C01C0925E0190
:10088000D0925F01E0926001F092610187E692E010
:100890000E943E03BC0190E080E00E94CE0E2B013E
:1008A0003C0140925A0150925B0160925C0170924F
:1008B0005D0185E592E00E943E03EC012091560126
:1008C000309157014091580150915901C701B6012B
:1008D0000E94B50D20E030E040E05FE30E94850F0C
:1008E0004B015C018092710190927201A0927301A0
:1008F000B092740120915201309153014091540102
:1009000050915501C301B2010E94B50D20E030E0C5
:1009100040E05FE30E94850F6B017C01C09275018E
:10092000D0927601E0927701F0927801BE0190E0DA
:1009300080E00E94CE0E20914E0130914F014091F7
:100940005001509151010E94B50D20E030E040E08F
:100950005FE30E94850F609362017093630180934F
:100960006401909365018092560190925701A09284
:100970005801B0925901C0925201D0925301E092B5
:100980005401F092550160934E0170934F01809392
:10099000500190935101DF91CF91FF90EF90DF9044
:1009A000CF90BF90AF909F908F907F906F905F900F
:1009B0004F900895CF92DF92EF920F93CF936C01F7
:1009C000C22FE11028C04A30510551F484E690E06E
:1009D0009C01261B370BB9018AE00E94BB0206C0AE
:1009E0006C597F4F8BE04B305105B9F361E031E03A
:1009F000C316D10491F060E0CD20C09471F48C2F27
:100A00000E945C0261E0802FCF910F91EF90DF9008
:100A1000CF900C945C02842FE0CF8C2F0E945C025C
:100A200060E0F1CF8F929F92AF92BF92CF92DF9210
:100A3000EF92FF920F931F93E12C07E010E026E066
:100A400030E04AE050E070E060E090E080E00E943A
:100A5000DA0409E010E028E030E04BE050E070E01C
:100A600060E090E080E00E94DA0410927D01109234
:100A70007C0110927F0110927E010E9418034B01AD
:100A80005C0182E3C82ED12CE12CF12C0E941803CA
:100A9000681979098A099B09683E734081059105A7
:100AA000A8F321E0C21AD108E108F10888EE880E07
:100AB00083E0981EA11CB11CC114D104E104F1040F
:100AC00029F71F910F91FF90EF90DF90CF90BF908B
:100AD000AF909F908F900895CF93DF93FC0101908A
:100AE0000020E9F73197AF01481B590BBC0188E89A
:100AF00091E00E94D100EC0142E050E066E271E03A
:100B000088E891E00E94D1008C0F9D1FDF91CF916A
:100B100008952F923F924F925F926F927F928F92A1
:100B20009F92AF92BF92CF92DF92EF92FF920F937C
:100B30001F93CF93DF93CDB7DEB76A970FB6F894C4
:100B4000DEBF0FBECDBF10927D0110927C011092CE
:100B50007F0110927E0189E291E00E946C058FB7BF
:100B6000F89420916B0130916C0140916D0150918E
:100B70006E012F8B388F498F5A8F8FBF2FB7F89404
:100B800080916B0190916C01A0916D01B0916E010B
:100B90002FBF2F89388D498D5A8D821B930BA40B43
:100BA000B50B803B9440A105B10508F018C142E6A1
:100BB0005DEF5A8349835C834B830E9418036B016A
:100BC0007C018091840190918501A0918601B09172
:100BD0008701A7019601281B390B4A0B5B0BCA0141
:100BE000B9010E94D00E20E034E244E759E40E94AB
:100BF000260E6B8B7C8B8D8B9E8BC0928401D0924A
:100C00008501E0928601F09287018FB7F8942091D8
:100C10007C0130917D013E832D8320917E013091B6
:100C20007F0138872F838FBF95E2292E92E0392EDE
:100C3000AE014F5F5F4F588B4F87CE0105969A8B61
:100C4000898BA0E1B1E0BE87AD87ECE0F1E0FA87E7
:100C5000E98728E031E03C872B8780E090E0A0E83E
:100C6000BFE3F10180839183A283B3832AE037ED50
:100C700043E25CE3248335834683578310861186E1
:100C80001286138620E030E048E453E42487358759
:100C900046875787EF85F88961917191F88BEF87C7
:100CA000A989BA898D919D91BA8BA98B681B790B03
:100CB000072E000C880B990B0E94D00E6B017C0153
:100CC000F10120893189428953890E94B40D2B8911
:100CD0003C894D895E890E94260E2B013C01A701AB
:100CE00096016B897C898D899E890E94850FD1012F
:100CF00054962D913D914D915C9157970E94B50D61
:100D00004B015C01F101848A958AA68AB78A2AE0A0
:100D100037ED43E25CE3C301B2010E94850FA701F6
:100D200096010E94B50D2B013C0120E030E0A901A5
:100D3000C501B4010E94850F9B01AC01C301B20142
:100D40000E94B50D2B013C019F770E94980E5B011C
:100D5000072E000C880B990B0E94D00E20E030E08B
:100D600048E453E40E94800F18161CF488ECA82E67
:100D7000B12C20E030E0A901C301B2010E94210E94
:100D800087FF2AC081E090E0D1015096CD92DD929C
:100D9000ED92FC925397ED85FE8501911191FE87AE
:100DA000ED87A985BA852D913D91BA87A987EB85F5
:100DB000FC8541915191FC87EB87EE24E394B501CA
:100DC0000E94DA04F8E12F0E311C25E5221622E0FC
:100DD000320609F4D3CE41CF8FEF9FEFD5CF6A967D
:100DE0000FB6F894DEBF0FBECDBFDF91CF911F913C
:100DF0000F91FF90EF90DF90CF90BF90AF909F90BA
:100E00008F907F906F905F904F903F902F900895BC
:100E10001F920F920FB60F9211242F933F934F936F
:100E20005F936F937F938F939F93AF93BF93EF9352
:100E3000FF9388E891E00E944F01FF91EF91BF91ED
:100E4000AF919F918F917F916F915F914F913F9162
:100E50002F910F900FBE0F901F9018951F920F9219
:100E60000FB60F9211242F938F939F93EF93FF93BD
:100E7000E0919801F09199018081E0919E01F091BB
:100E80009F0182FD1BC090818091A1018F5F8F73B4
:100E90002091A201821741F0E091A101F0E0E85712
:100EA000FE4F958F8093A101FF91EF919F918F91BC
:100EB0002F910F900FBE0F901F9018958081F4CF47
:100EC0001F920F920FB60F9211242F933F938F937F
:100ED0009F93AF93BF9380916B0190916C01A09110
:100EE0006D01B0916E013091660123E0230F2D3723
:100EF00058F50196A11DB11D2093660180936B01E9
:100F000090936C01A0936D01B0936E018091670185
:100F100090916801A0916901B0916A010196A11DAB
:100F2000B11D8093670190936801A0936901B0930C
:100F30006A01BF91AF919F918F913F912F910F9037
:100F40000FBE0F901F90189526E8230F0296A11D43
:100F5000B11DD2CF1F920F920FB60F9211242F9373
:100F60003F934F935F936F937F938F939F93AF9331
:100F7000BF93EF93FF93E0910201F0910301099574
:100F8000FF91EF91BF91AF919F918F917F916F9161
:100F90005F914F913F912F910F900FBE0F901F9037
:100FA00018951F920F920FB60F9211242F933F9313
:100FB0004F935F936F937F938F939F93AF93BF9361
:100FC000EF93FF93E0910001F09101010995FF91EA
:100FD000EF91BF91AF919F918F917F916F915F91B1
:100FE0004F913F912F910F900FBE0F901F9018952A
:100FF0001F920F920FB60F9211240F900FBE0F90F9
:101000001F901895E8E8F1E01382128288EE93E0D1
:10101000A0E0B0E084839583A683B78388E191E064
:101020009183808385EC90E09587848784EC90E0C1
:101030009787868780EC90E0918B808B81EC90E0A5
:10104000938B828B82EC90E0958B848B86EC90E086
:10105000978B868B118E128E138E148E4EE06FE05E
:1010600089E792E00E948C0042E163E187E692E02A
:101070000E948C0040E161E185E592E00E948C00D5
:10108000E5E2F2E040E050E060E87FE34083518336
:1010900062837383148215821682178210861186EA
:1010A0001286138680E090E0AFE7B3E484879587EB
:1010B000A687B787108A118A128A138A148A158A1A
:1010C000168A178A408F518F628F738F148E158EF8
:1010D000168E178E10A211A212A213A284A395A39A
:1010E000A6A3B7A310A611A612A613A614A615A60A
:1010F00016A617A60895CF93DF93CDB7DEB7A697B0
:101100000FB6F894DEBF0FBECDBF789484B5826071
:1011100084BD84B5816084BD85B5826085BD85B59B
:10112000816085BD80916E00816080936E00109219
:101130008100809181008260809381008091810094
:101140008160809381008091800081608093800025
:101150008091B10084608093B1008091B000816083
:101160008093B00080917A00846080937A008091AF
:101170007A00826080937A0080917A008160809307
:101180007A0080917A00806880937A001092C10082
:10119000E0919801F091990182E08083E0919401BF
:1011A000F09195011082E0919601F09197018FECFA
:1011B00080831092A001E0919C01F0919D0186E056
:1011C0008083E0919A01F0919B018081806180830E
:1011D000E0919A01F0919B01808188608083E09189
:1011E0009A01F0919B01808180688083E0919A014F
:1011F000F0919B0180818F7D808360E082E00E947E
:101200008A0260E084E00E948A0261E08AE00E9433
:101210008A0261E086E00E948A0261E087E00E9423
:101220008A02412C512C612C40E4742E40922502FC
:101230005092260260922702709228025DEC852E61
:101240005CEC952EA92C5DE3B52E8092290290923C
:101250002A02A0922B02B0922C0210922D02109220
:101260002E0210922F0210923002C12CD12C68EC69
:10127000E62E62E4F62EC0923102D0923202E09263
:101280003302F092340260E083E00E948A0260E060
:1012900085E00E948A0261E08BE00E948A0261E0A0
:1012A00088E00E948A0261E089E00E948A024092FE
:1012B0003D0250923E0260923F0270924002809244
:1012C000410290924202A0924302B09244021092D4
:1012D0004502109246021092470210924802C092B4
:1012E0004902D0924A02E0924B02F0924C0280E313
:1012F00092E09093010180930001809169008360E6
:1013000080936900E89A86E492E0909303018093C9
:101310000201809169008C6080936900E99A84E3FE
:1013200091E00E946C050E94250420E030E040E23C
:1013300051E46091710170917201809173019091FB
:1013400074010E94800F181674F3209104012B8FF2
:10135000309105013C8F409106014D8F509107015E
:101360005E8F2BA33CA34DA35EA30E9418036B01C9
:101370007C018091840190918501A0918601B091BA
:101380008701A7019601281B390B4A0B5B0BCA0189
:10139000B9010E94D00E20E034E244E759E40E94F3
:1013A000260E609380017093810180938201909357
:1013B0008301C0928401D0928501E0928601F0926F
:1013C00087018FB7F89420917C0130917D012091A5
:1013D0007E0130917F018FBF0E9425040E94E203AD
:1013E00090917B0180917A01992309F46CC2882342
:1013F00009F4FDC0809179018111F9C035E2232EF5
:1014000032E0332E40E151E05E874D878CE091E081
:101410009A878987A8E0B1E0BA8BA98BFE01319643
:10142000F88BEF87FB8DF9832C8D2A833D8D3B83D1
:101430004E8D4C8380E090E0A0E5B1E4F101808323
:101440009183A283B38320E030E040E250E4248320
:10145000358346835783108611861286138620E0D3
:1014600030E048EC52E42487358746875787C090A0
:101470008001D0908101E0908201F0908301609121
:1014800075017091760180917701909178010E94A9
:10149000980E4B01609171017091720180917301FE
:1014A000909174010E94980E861A970AB401990CC3
:1014B000880B990B0E94D00E2B013C01F101208971
:1014C0003189428953890E94B40DA70196010E9477
:1014D000260E6B8B7C8B8D8B9E8BA3019201C7019B
:1014E000B6010E94850FD10154962D913D914D91E9
:1014F0005C9157970E94B50D6B017C01F101C48A84
:10150000D58AE68AF78A20E030E040E551E4C3015D
:10151000B2010E94850F4B015C0120E030E040E207
:1015200050E46B897C898D899E890E94850F9B017F
:10153000AC01C501B4010E94B50D4B015C0120E076
:1015400030E0A901C701B6010E94850F9B01AC01E3
:10155000C501B4010E94B50D6B017C0120E030E0B3
:101560004CE852E40E94800F66E470E0181684F0A4
:1015700020E030E04CE852ECC701B6010E94800F39
:101580006AEB7FEF181624F4C701B6010E94980E8B
:101590007093700160936F01D10150964D925D92EE
:1015A0006D927C925397ED85FE8501911191FE8796
:1015B000ED87A985BA852D913D91BA87A987E989DB
:1015C000FA8941915191FA8BE98BE12CAF85B88969
:1015D0008D919D91B88BAF870E94DA04B8E12B0EF4
:1015E000311CE5E5F2E0E215F30509F01BCF80912F
:1015F0007A01811112C080917901882371F00E94D3
:1016000089050E94120509C081E090E085C20E9410
:10161000120580917B018111EACF80917B018111BC
:101620000CC080917A01811108C0809179018823D2
:1016300021F00E9489050E94120510927D011092EE
:101640007C0110927F0110927E01809179018111BD
:1016500028C10E9425040E94E20380917B01882317
:1016600049F080917A01882329F0809179018823BB
:1016700009F417C10E9418036B017C018091840159
:1016800090918501A0918601B0918701A7019601F3
:10169000281B390B4A0B5B0BCA01B9010E94D00E03
:1016A00020E034E244E759E40E94260E69877A87F5
:1016B0008B879C8760938001709381018093820166
:1016C00090938301C0928401D0928501E0928601BB
:1016D000F092870185E2282E82E0382E40E151E029
:1016E0005E874D878CE091E09A8B898BA8E0B1E012
:1016F000B88BAF87FE013196FC8BEB8BFBA1F98396
:101700002CA12A833DA13B834EA14C8380E090E035
:10171000A0E0B0E4F10180839183A283B3832DEC38
:101720003CEC4CEC5DE32483358346835783108681
:1017300011861286138620E030E048EC52E42487BC
:1017400035874687578760917E0170917F01809130
:101750007C0190917D01680F791F072E000C880B8A
:10176000990B0E94D00E2B013C01F1012089318997
:10177000428953890E94B40D29853A854B855C8541
:101780000E94260E6F8B788F898F9A8FA30192010A
:1017900069857A858B859C850E94850FD101549639
:1017A0002D913D914D915C9157970E94B50D6B0124
:1017B0007C01F101C48AD58AE68AF78AA3019201E5
:1017C000C301B2010E94B50D4B015C012DEC3CEC54
:1017D0004CEC5DE36F89788D898D9A8D0E94850F21
:1017E0009B01AC01C501B4010E94B50D4B015C0128
:1017F00020E030E0A901C701B6010E94850F9B01DE
:10180000AC01C501B4010E94B50D6B017C0120E063
:1018100030E04CE852E40E94800F66E470E0181655
:1018200084F020E030E04CE852ECC701B6010E94A1
:10183000800F6AEB7FEF181624F4C701B6010E94EF
:10184000980E7093700160936F01D10150964D9284
:101850005D926D927C925397ED85FE850191119179
:10186000FE87ED87A989BA892D913D91BA8BA98B05
:10187000EF85F88941915191F88BEF87E12CAB8985
:10188000BC898D919D91BC8BAB8B0E94DA04B8E131
:101890002B0E311CE5E52E16E2E03E0609F02ECFB8
:1018A000D4CE8091790181110E94120580E090E0F0
:1018B000892B09F45ACD0E943B01882309F455CDA8
:1018C0000E94000052CD882309F4A3CE80917901B3
:1018D000882309F49ECE10927D0110927C01109213
:1018E0007F0110927E018FE391E00E946C058FB71B
:1018F000F89420916B0130916C0140916D015091F1
:101900006E012F8F38A349A35AA38FBF2FB7F89426
:1019100080916B0190916C01A0916D01B0916E016D
:101920002FBF2F8D38A149A15AA1821B930BA40B65
:10193000B50B803B9440A105B10508F068CE4EE997
:1019400052E05E834D8358874F830E9418036B01DA
:101950007C018091840190918501A0918601B091D4
:101960008701A7019601281B390B4A0B5B0BCA01A3
:10197000B9010E94D00E20E034E244E759E40E940D
:10198000260E6B8B7C8B8D8B9E8BC0928401D092AC
:101990008501E0928601F09287018FB7F89420913B
:1019A0007C0130917D013A83298320917E01309121
:1019B0007F013C832B838FBF25E2222E22E0322E33
:1019C000AE014B5F5F4F5A874987CE0101969E87D4
:1019D0008D87A0E1B1E0B88BAF87ECE0F1E0FA8B46
:1019E000E98B28E031E0388F2F8B80E090E0A0E891
:1019F000BFE3F10180839183A283B3832DEC3CECA0
:101A00004CEC5DE32483358346835783108611862F
:101A10001286138620E030E048E453E424873587BB
:101A200046875787E985FA8561917191FA87E98739
:101A3000AD85BE858D919D91BE87AD87681B790B65
:101A4000072E000C880B990B0E94D00E6B017C01B5
:101A5000F10120893189428953890E94B40D2B8973
:101A60003C894D895E890E94260E2B013C01A7010D
:101A700096016B897C898D899E890E94850FD10191
:101A800054962D913D914D915C9157970E94B50DC3
:101A90004B015C01F101848A958AA68AB78A2DECF4
:101AA0003CEC4CEC5DE3C301B2010E94850FA70141
:101AB00096010E94B50D2B013C0120E030E0A90108
:101AC000C501B4010E94850F9B01AC01C301B201A5
:101AD0000E94B50D2B013C019F770E94980E5B017F
:101AE000072E000C880B990B0E94D00E20E030E0EE
:101AF00048E453E40E94800F18161CF498ECA92EB9
:101B0000B12C20E030E0A901C301B2010E94210EF6
:101B100087FD7ACD8FEF9FEFD1015096CD92DD9268
:101B2000ED92FC925397EF85F88901911191F88B12
:101B3000EF87A989BA892D913D91BA8BA98BEF893D
:101B4000F88D41915191F88FEF8BEE24E394B5011C
:101B50000E94DA04F8E12F0E311C25E5221622E05E
:101B6000320609F4D3CE41CF5058BB27AA270E9492
:101B7000CC0D0C94460F0E94380F38F00E943F0F96
:101B800020F039F49F3F19F426F40C94350F0EF42D
:101B9000E095E7FB0C942F0FE92F0E94570F58F3A5
:101BA000BA17620773078407950720F079F4A6F542
:101BB0000C94790F0EF4E0950B2EBA2FA02D0B018B
:101BC000B90190010C01CA01A0011124FF27591B82
:101BD00099F0593F50F4503E68F11A16F040A22F88
:101BE000232F342F4427585FF3CF469537952795F9
:101BF000A795F0405395C9F77EF41F16BA0B620BF8
:101C0000730B840BBAF09150A1F0FF0FBB1F661F3E
:101C1000771F881FC2F70EC0BA0F621F731F841F81
:101C200048F4879577956795B795F7959E3F08F0A7
:101C3000B0CF9395880F08F09927EE0F9795879569
:101C400008950E940B0F08F481E008950E943A0E57
:101C50000C94460F0E943F0F58F00E94380F40F03E
:101C600029F45F3F29F00C942F0F51110C947A0F37
:101C70000C94350F0E94570F68F39923B1F3552345
:101C800091F3951B550BBB27AA276217730784078F
:101C900038F09F5F5F4F220F331F441FAA1FA9F325
:101CA00035D00E2E3AF0E0E832D091505040E69513
:101CB000001CCAF72BD0FE2F29D0660F771F881F74
:101CC000BB1F261737074807AB07B0E809F0BB0B67
:101CD000802DBF01FF2793585F4F3AF09E3F51057B
:101CE00078F00C942F0F0C947A0F5F3FE4F3983E3A
:101CF000D4F3869577956795B795F7959F5FC9F764
:101D0000880F911D9695879597F90895E1E0660FE4
:101D1000771F881FBB1F621773078407BA0720F05D
:101D2000621B730B840BBA0BEE1F88F7E0950895C6
:101D30000E949F0E6894B1110C947A0F08950E942E
:101D40005F0F88F09F5798F0B92F9927B751B0F0DF
:101D5000E1F0660F771F881F991F1AF0BA95C9F72F
:101D600014C0B13091F00E94790FB1E008950C9445
:101D7000790F672F782F8827B85F39F0B93FCCF3F8
:101D8000869577956795B395D9F73EF490958095AC
:101D9000709561957F4F8F4F9F4F0895E89409C0CC
:101DA00097FB3EF490958095709561957F4F8F4F8E
:101DB0009F4F9923A9F0F92F96E9BB279395F695A4
:101DC000879577956795B795F111F8CFFAF4BB0F22
:101DD00011F460FF1BC06F5F7F4F8F4F9F4F16C086
:101DE000882311F096E911C0772321F09EE8872F10
:101DF000762F05C0662371F096E8862F70E060E0CC
:101E00002AF09A95660F771F881FDAF7880F969544
:101E1000879597F90895990F0008550FAA0BE0E8E8
:101E2000FEEF16161706E807F907C0F0121613069C
:101E3000E407F50798F0621B730B840B950B39F4DC
:101E40000A2661F0232B242B252B21F408950A2642
:101E500009F4A140A6958FEF811D811D089597F982
:101E60009F6780E870E060E008959FEF80EC089540
:101E700000240A9416161706180609060895002469
:101E80000A9412161306140605060895092E0394E3
:101E9000000C11F4882352F0BB0F40F4BF2B11F457
:101EA00060FF04C06F5F7F4F8F4F9F4F089557FDB6
:101EB0009058440F551F59F05F3F71F04795880FB8
:101EC00097FB991F61F09F3F79F08795089512164F
:101ED00013061406551FF2CF4695F1DF08C01616FB
:101EE00017061806991FF1CF8695710561050894AC
:101EF0000895E894BB2766277727CB0197F90895C3
:101F00000E940B0F08F48FEF08950E94980F0C9415
:101F1000460F0E94380F38F00E943F0F20F09523A3
:101F200011F00C942F0F0C94350F11240C947A0F90
:101F30000E94570F70F3959FC1F3950F50E0551F06
:101F4000629FF001729FBB27F00DB11D639FAA270E
:101F5000F00DB11DAA1F649F6627B00DA11D661F5D
:101F6000829F2227B00DA11D621F739FB00DA11D7E
:101F7000621F839FA00D611D221F749F3327A00D38
:101F8000611D231F849F600D211D822F762F6A2FD4
:101F900011249F5750409AF0F1F088234AF0EE0F39
:101FA000FF1FBB1F661F771F881F91505040A9F766
:101FB0009E3F510580F00C942F0F0C947A0F5F3FD9
:101FC000E4F3983ED4F3869577956795B795F795A2
:101FD000E7959F5FC1F7FE2B880F911D969587951A
:101FE00097F90895AA1BBB1B51E107C0AA1FBB1F8D
:101FF000A617B70710F0A61BB70B881F991F5A9595
:10200000A9F780959095BC01CD010895EE0FFF1FB3
:0C2010000590F491E02D0994F894FFCFA6
:10201C003D033D03FFFF01000A000B000600080012
:10202C0007000900000000007101D100FE00BE0194
:10203C002F010D0121010D0A005455524E20524919
:10204C004748540074617267657420706F73005454
:0A205C0055524E204C45465400003A
:00000001FF
